:03000000020952A0
:0C095200787FE4F6D8FD758108020921C9
:10093A00C0F9A4B0999282F880908883C6A1868E65
:08094A008040201008040201A6
:10090300D3EF9400EE940040147D6E7C00ED1D70D7
:0D091300011CED4C70F7EF1F70E61E80E335
:0109200022B4
:1008B700AB05D295EF90094A93F580C2957F057EE7
:1008C70000120903D294EB90093A93F580C2947F02
:0608D700057E000209038A
:1008890075A0F0AFA0EF64F060237F057E00120928
:1008990003AFA0EF64F06015EF54F0FB75A00F7F74
:0D08A900017E00120903AFA0EF4203AF0370
:0108B600221F
:10080000EF1208DD088377086F7B085B7D08477E61
:10081000087EB7086ABB0856BD0842BE0879D708EB
:1008200065DB0851DD083DDE0874E70860EB084C25
:10083000ED0838EE00000886E4F5088049750801E7
:100840008044750802803F750803803A750804806B
:10085000357508058030750806802B7508078026D9
:100860007508088021750809801C75080A801775AD
:10087000080B801275080C800D75080D800875082E
:080880000E800375080FAF089C
:01088800224D
:100921007580FF7590FFC294C29512088912080064
:09093100AD077F011208B780F147
:1008DD00D083D082F8E4937012740193700DA3A3AA
:1008ED0093F8740193F5828883E4737402936860BE
:0608FD00EFA3A3A380DFBE
:00000001FF
